:020000040000FA
:10000000680400206D02000071020000730200000D
:100010007502000077020000790200000000000075
:100020000000000000000000000000007B02000053
:100030007D020000000000007F020000810200003D
:1000400083020000DD030000830200008302000041
:10005000830200008302000083020000830200008C
:10006000830200008302000083020000830200007C
:10007000830200008302000083020000830200006C
:10008000830200008302000083020000830200005C
:10009000830200008302000083020000830200004C
:1000A000830200008302000083020000830200003C
:1000B000830200008302000083020000830200002C
:1000C000830200008302000083020000830200001C
:1000D000830200008302000083020000830200000C
:1000E00083020000830200008302000083020000FC
:1000F00083020000830200008302000083020000EC
:1001000083020000830200008302000083020000DB
:1001100083020000830200008302000083020000CB
:1001200083020000830200008302000083020000BB
:1001300083020000830200008302000083020000AB
:1001400000000000000000000000000000000000AF
:10015000830200008302000083020000830200008B
:10016000000000000000000000000000000000008F
:10017000000000000000000000000000000000007F
:10018000000000000000000000000000000000006F
:10019000000000000000000000000000000000005F
:1001A000000000000000000000000000000000004F
:1001B000830200008302000083020000830200002B
:1001C000830200008302000083020000830200001B
:1001D000830200008302000083020000830200000B
:1001E00083020000830200008302000083020000FB
:1001F00083020000830200008302000083020000EB
:10020000830200008302000083020000000000005F
:1002100083020000830200008302000083020000CA
:1002200083020000830200008302000083020000BA
:1002300083020000830200008302000083020000AA
:10024000830200008302000083020000830200009A
:10025000830200008302000083020000830200008A
:1002600083020000830200008302000000F00AB84D
:10027000FEE7FEE7FEE7FEE7FEE7FEE7FEE7FEE756
:10028000FEE7FEE700F002F800F042F814A696E858
:10029000000CB244B344DA4501D100F039F8BAE8B1
:1002A0000F000FA696E83000A5EB040504EB060747
:1002B000AAEB0704A7F101074FEA15154FEA34141A
:1002C000A4F10104AC4201D300F022F813F0010FB5
:1002D00018BFFB1A43F0010300F001F8DBE71847F1
:1002E00020060000300600007047000000230024B4
:1002F00000250026103A28BF78C1FBD8520728BF36
:1003000030C148BF0B6070471FB51FBD10B510BD91
:1003100000F029F81146FFF7F7FF00F073F900F03D
:1003200047F803B4FFF7F2FF03BC00F04FF80000FA
:1003300072B6704762B67047EFF3108072B67047BE
:1003400080F31088704730BF704702480249014A65
:10035000024B7047680000206804002068000020FD
:10036000704770477047754600F02CF8AE460500A0
:100370006946534620F00700854618B020B5FFF7C0
:10038000E4FFBDE820404FF000064FF000074FF0BB
:1003900000084FF0000BAC46ACE8C009ACE8C0095F
:1003A000ACE8C009ACE8C00921F007018D467047F0
:1003B00010B50446AFF300802046BDE81040FFF7BB
:1003C000B0BF00000048704700000020014918201D
:1003D000ABBEFEE7260002007047000080B545F284
:1003E0000010C4F200000068402806D1FFE7632037
:1003F0004FF4A05100F0E4F824E000F0FBF800F026
:100400009FF800F06CF900220023C3F6B07300F0EF
:1004100079F946F60072C0F2814248F6C573C3F618
:10042000A17300F06FF900F02DF9400840F260016F
:10043000C2F20001086040F26401C2F20001012032
:100440000870FFE745F21C41C4F20001402008603B
:1004500080BD00004EF20811C4F20F01086840F0A0
:1004600002000860FFE74EF20810C4F20F000068B7
:1004700000F00200022801D0FFE7F4E745F22C511A
:10048000C4F20001086820F07060086045F228514D
:10049000C4F20001086820F0C000086045F2004185
:1004A000C4F20001086820F040000860086840F0CD
:1004B0008000086045F22041C4F20001086820F085
:1004C000C000086045F21C51C4F20001086840F009
:1004D000C000086045F20441C4F20001086820F041
:1004E0004000086045F20841C4F20001086840F08D
:1004F0004000086045F20C41C4F20001086820F099
:100500004000086045F21C41C4F200014020086030
:1005100045F21041C4F20001086840F04000086054
:100520004EF20041CEF200010868032262F34F3020
:1005300008604EF20011CEF2000102200860704700
:1005400041F22800C4F20300006841F24801C4F2FD
:1005500003010968401A41F23801C4F20301096835
:1005600048430130704700004EF20461C4F20F01AD
:10057000086840F002000860FFE74EF20810C4F27D
:100580000F00006800F00200022801D0FFE7F4E746
:1005900041F20C01C4F203010868086041F2000155
:1005A000C4F20301086840F00400086041F204014D
:1005B000C4F20301086840F00200086070470000C0
:1005C00082B0019000910098013841F22801C4F2F4
:1005D00003010860019841F23801C4F20301086088
:1005E00041F20C01C4F20301086840F00100086008
:1005F00002B0704741F20C01C4F203010020086010
:100600007047000080B584B000200390FFF722FF00
:10061000FFF7AAFFFFF78EFEFFE740F26401C2F288
:10062000000100200190087040F26001C2F2000158
:10063000086045F20022C4F200020292116821F023
:10064000800111602021FFF7BBFFFFF7D3FF019866
:10065000029A116841F080011160A021FFF7B0FFFC
:10066000FFF7C8FF0299086820F080000860FFE7E4
:1006700040F26400C2F20000007808B9FFE7F7E733
:10068000CBE700004FEA1153A3F58063D3F11E03BB
:10069000A8BFD3F1200C08DB4FF0004242EAC12290
:1006A00052EA505232FA03F0704709420BD4102B31
:1006B000C4BF0020704703F5787CBCF1FF3F05D034
:1006C0004FF0FF3070474FF00000704770B500F0FA
:1006D000C3F800BF4992248000207047F0E7B0FAC9
:1006E00080F310FA03F10AD0C3F11D0303F5806310
:1006F0004FEA03524FEA415002EBD12170474FF0CD
:100700000000704770B5DFF848C11CEA111E1EBF1B
:100710001CEA13159EEA0C0F95EA0C0F00F06F808F
:1007200081EA03044EEAD47EAE4421EA4C1123EA66
:100730004C1341F4801143F48013AEF17F7EA1FB92
:10074000024CA0FB0365361955EB0C05A1FB034CCD
:100750004CF10003A0FB021C16EB0C06654153F1A3
:100760000003094218BF46F0010613F4007F0BD1C5
:100770004FEA03314FEA053041EA155140EA16507D
:1007800034036FF003020AE04FEAC3214FEAC520A9
:1007900041EA555140EA5650F4026FF0020202EB72
:1007A0002E4201EB025585EACE710AD05FEA440C75
:1007B00018BF24F0004450F1000041F1000120EA8C
:1007C000D47040F2FE7C624500D270BDA84214BFD6
:1007D0004FF080444FF04044002E08BF0024BEF18B
:1007E000806FA8BFA1F1C041BDE8704080F2828057
:1007F00001F1C04101F000414FF0000070470CEAE8
:1008000013159EEA0C0F18BF95EA0C0F06D081EA6B
:10081000030E4FF000000EF0004170BD00F01CF818
:100820008900013E00F007B800F009B84FEA430C18
:100830005FEA5C5C08D081EA030100F05BB84FEA34
:10084000410C5FEA5C5CF6D102494FF00000704752
:100850000000FF070000F87F0EF1020E2EF0030EDD
:100860005EF8046B364205D4012A43EB030515F507
:10087000001F12D8012841EB010C1CF5001F0CD8F9
:100880000ED14FEAD17C0CEB4C0C0CF1020C15F59F
:10089000001F08BF4CEBD37C04E04FF0080C01E0D4
:1008A0004FEAD37C0CEB4C0526FA05F606F007065A
:1008B000B6F1040C06D20EEB860CBDE870404CF08D
:1008C000010C6047DFE80CF0090B02024FF0004119
:1008D000A1F500214FF0000070BD19461046012817
:1008E00051EB010418BFD4F5001484BF002001F0BF
:1008F000004170BD0808A0F500114FEA31017047B2
:10090000100900000000002068040000EC02000054
:040000050000026D88
:00000001FF
